:020000040800F2
:10000000003E0020D9B90008B1610108ADB900086F
:10001000ADB90008ADB90008ADB900080000000096
:100020000000000000000000000000004DB10008CA
:10003000ADB9000800000000B9B00008F9E50008FB
:10004000D9B20008D9B20008D9B20008D9B2000864
:10005000D9B20008D9B20008D9B20008D9B2000854
:10006000D9B20008D9B20008D9B20008D9B2000844
:10007000D9B20008D9B20008D9B20008D9B2000834
:10008000D9B20008D9B20008D9B20008D9B2000824
:10009000D9B20008D9B20008D9B20008D9B2000814
:1000A000D9B20008D9B20008D9B20008D9B2000804
:1000B000D9B20008D9B20008D9B20008D9B20008F4
:1000C000D9B20008D9B20008D9B20008D9B20008E4
:1000D000D9B20008D9B20008D9B20008D9B20008D4
:1000E000D9B20008D9B20008D9B20008D9B20008C4
:1000F000D9B20008D9B20008D9B20008D9B20008B4
:10010000D9B20008D9B20008D9B20008D9B20008A3
:10011000D9B20008D9B20008D9B20008D9B2000893
:10012000D9B20008D9B20008D9B20008D9B2000883
:10013000D9B20008D9B20008D9B20008D9B2000873
:10014000D9B20008D9B20008D9B20008D9B2000863
:10015000D9B20008D9B20008D9B20008D9B2000853
:10016000D9B20008D9B20008D9B20008D9B2000843
:10017000D9B20008D9B20008D9B20008D9B2000833
:08018000D9B20008D9B2000851
:10018800FFFFFFFFFFFFFFFFFFFFFFFFFFFFFFFF77
:10019800FFFFFFFFFFFFFFFFFFFFFFFFFFFFFFFF67
:1001A800FFFFFFFFFFFFFFFFFFFFFFFFFFFFFFFF57
:0801B800FFFFFFFFFFFFFFFF47
:1001C00090F800F06DE9024520F007016FF0000C97
:1001D00010F0070491F820F040F049804FF000043F
:1001E0006FF00700D1E9002391F840F000F108001A
:1001F00082FA4CF2A4FA8CF283FA4CF3A2FA8CF352
:100200004BBBD1E9022382FA4CF200F10800A4FAB8
:100210008CF283FA4CF3A2FA8CF3E3B9D1E904230C
:1002200082FA4CF200F10800A4FA8CF283FA4CF343
:10023000A2FA8CF37BB9D1E9062301F1200182FAFD
:100240004CF200F10800A4FA8CF283FA4CF3A2FA03
:100250008CF3002BC6D0002A04BF04301A4612BA11
:10026000B2FA82F2FDE8024500EBD2007047D1E914
:10027000002304F00305C4F100004FEAC50514F0A3
:10028000040F91F840F00CFA05F562EA05021CBF74
:1002900063EA050362464FF00004A9E7000000008E
:1002A000A2EB0300704700BF02780B78012A28BF39
:1002B0009A42F5D16DE9044540EA0104CDE90267AF
:1002C0006FF0000C4FEA447212B380EA010414F09C
:1002D000070F6AD100F0070420F0070004F00305BF
:1002E00021F007014FEAC505F0E8042314F0040FDC
:1002F000F1E804670CFA05F462EA040266EA04060F
:100300000AD063EA0403624667EA0407664603E02C
:10031000F0E80423F1E8046782FA4CF582EA060467
:10032000A4FA8CF46CBB83FA4CF583EA0705A5FAB2
:100330008CF595B950E9022351E9026782FA4CF530
:1003400082EA0604A4FA8CF483FA4CF583EA0705E2
:10035000A5FA8CF52543DBD09CB92DBAB5FA85F406
:1003600024F0070427FA04F1DDE9026723FA04F315
:1003700003F0FF0001F0FF01FDE80445A0EB0100E0
:10038000704724BAB4FA84F424F0070426FA04F17E
:10039000DDE9026722FA04F202F0FF0001F0FF013A
:1003A000FDE80445A0EB0100704714F0030F3CD1B9
:1003B00010F0030428D150F8082B51F8083B82FABA
:1003C0004CF582EA0305A5FA8CF55DB950F8042CCA
:1003D00051F8043C82FA4CF582EA0305A5FA8CF543
:1003E000002DE8D02DBAB5FA85F424F0070423FADD
:1003F00004F122FA04F202F0FF0001F0FF01FDE82F
:100400000445A0EB010070474FEAC40420F003004C
:1004100050F8082B21F0030151F8083B0CFA04F4C2
:1004200062EA040263EA0403C9E710F003041AD085
:10043000A1EB040120F00300E40750F8042B06D0E0
:100440000FD28B785FFAA2F4E41A06D12BB1CB78E5
:100450005FFAB2F4E41A00D11BB920465DF8104BE4
:10046000704701F1040150F8042BCC0721F003017F
:1004700051F8043B48D824D222F07F4482FA4CF54C
:1004800094EA1325A5FA8CF50AD165B951F8043B15
:1004900084EA0204B4EB036F0ED150F8042BEBE7AF
:1004A0004FEA132355E035F07F454DD10878FDE83C
:1004B0000445C0F1000070474FEA126203F0FF03E9
:1004C00047E002EA1C4482FA4CF594EA1345A5FA87
:1004D0008CF50AD165B951F8043B84EA0204B4EB07
:1004E000034F0CD150F8042BEBE74FEA134330E0F5
:1004F00015EA1C4528D10B884FEA124229E04FEA41
:10050000124203EA1C4324E002F0FF0482FA4CF595
:1005100094EA1365A5FA8CF50AD165B951F8043B44
:1005200084EA0204B4EB032F09D150F8042BEBE763
:100530004FEA13630DE015F0FF0F05D10B684FEA8A
:10054000122223F07F4304E04FF00000FDE8044551
:10055000704712BA1BBA82FA4CF482EA0304A4FA76
:100560008CF5B5FA85F402FA04F203FA04F34FEAC3
:100570001260FDE80445A0EB136070470000000026
:1005800001F0FF01102A2BDB10F0070F08D010F844
:10059000013B013A8B422DD010F0070F42B3F6D148
:1005A000F0B441EA012141EA014122F007047FF061
:1005B00000070023F0E80256083C85EA010586EAB8
:1005C000010685FA47F5A3FA87F586FA47F6A5FAF4
:1005D00087F68EB9EED1F0BC01F0FF0102F0070200
:1005E00032B110F8013B013A83EA010313B1F8D1AB
:1005F0000020704701387047002D06BF354603388C
:10060000073815F0010F07D1013015F4807F02BFC4
:10061000013015F4C03F0130F0BC0138704700BF15
:1006200081F0004102E000BF83F0004330B54FEAA3
:1006300041044FEA430594EA050F08BF90EA020F10
:100640001FBF54EA000C55EA020C7FEA645C7FEAA3
:10065000655C00F0E2804FEA5454D4EB5555B8BFC6
:100660006D420CDD2C4480EA020281EA030382EA37
:10067000000083EA010180EA020281EA0303362DC9
:1006800088BF30BD11F0004F4FEA01314FF4801C9C
:100690004CEA113102D0404261EB410113F0004FAE
:1006A0004FEA03334CEA133302D0524263EB430365
:1006B00094EA050F00F0A780A4F10104D5F1200E03
:1006C0000DDB02FA0EFC22FA05F2801841F100015E
:1006D00003FA0EF2801843FA05F359410EE0A5F132
:1006E00020050EF1200E012A03FA0EFC28BF4CF063
:1006F000020C43FA05F3C01851EBE37101F0004519
:1007000007D54FF0000EDCF1000C7EEB00006EEB25
:100710000101B1F5801F1BD3B1F5001F0CD34908AF
:100720005FEA30004FEA3C0C04F101044FEA445206
:1007300012F5800F80F09A80BCF1004F08BF5FEA8D
:10074000500C50F1000041EB045141EA050130BD6D
:100750005FEA4C0C404141EB0101013C28BFB1F57F
:10076000801FE9D291F0000F04BF01460020B1FACA
:1007700081F308BF2033A3F10B03B3F120020CDA9D
:100780000C3208DD02F1140CC2F10C0201FA0CF07B
:1007900021FA02F10CE002F11402D8BFC2F1200CE0
:1007A00001FA02F120FA0CFCDCBF41EA0C01904096
:1007B000E41AA2BF01EB0451294330BD6FEA0404DF
:1007C0001F3C1CDA0C340EDC04F11404C4F12002CA
:1007D00020FA04F001FA02F340EA030021FA04F3DC
:1007E00045EA030130BDC4F10C04C4F1200220FA33
:1007F00002F001FA04F340EA0300294630BD21FA71
:1008000004F0294630BD94F0000F83F4801306BF36
:1008100081F480110134013D4EE77FEA645C18BF2A
:100820007FEA655C29D094EA050F08BF90EA020FC1
:1008300005D054EA000C04BF1946104630BD91EAB9
:10084000030F1EBF0021002030BD5FEA545C05D1BC
:100850004000494128BF41F0004130BD14F58004FB
:100860003CBF01F5801130BD01F0004545F0FE416F
:1008700041F470014FF0000030BD7FEA645C1ABFA4
:10088000194610467FEA655C1CBF0B46024650EADB
:10089000013406BF52EA033591EA030F41F4002107
:1008A00030BD00BF90F0000F04BF0021704730B58D
:1008B0004FF4806404F132044FF000054FF0000162
:1008C00050E700BF90F0000F04BF0021704730B523
:1008D0004FF4806404F1320410F0004548BF4042F8
:1008E0004FF000013EE700BF42004FEAE2014FEA4D
:1008F00031014FEA02701FBF12F07F4393F07F4F28
:1009000081F06051704732F07F4208BF704793F02A
:100910007F4F04BF41F40021704730B54FF460743D
:1009200001F0004521F000411CE700BF50EA010240
:1009300008BF704730B54FF000050AE050EA0102E9
:1009400008BF704730B511F0004502D5404261EB59
:1009500041014FF4806404F132045FEA915C3FF49A
:10096000D8AE4FF003025FEADC0C18BF03325FEA37
:10097000DC0C18BF033202EBDC02C2F1200300FAE8
:1009800003FC20FA02F001FA03FE40EA0E0021FA0D
:1009900002F11444BDE600BF70B54FF0FF0C4CF4FB
:1009A000E06C1CEA11541DBF1CEA135594EA0C0FAD
:1009B00095EA0C0F00F0DEF82C4481EA030621EAE8
:1009C0004C5123EA4C5350EA013518BF52EA033523
:1009D00041F4801143F4801338D0A0FB02CE4FF0D5
:1009E0000005E1FB02E506F00042E0FB03E54FF005
:1009F0000006E1FB03569CF0000F18BF4EF0010EFD
:100A0000A4F1FF04B6F5007F64F5407404D25FEAF8
:100A10004E0E6D4146EB060642EAC62141EA5551AB
:100A20004FEAC52040EA5E504FEACE2EB4F1FD0CED
:100A300088BFBCF5E06F1ED8BEF1004F08BF5FEA6B
:100A4000500E50F1000041EB045170BD06F000461D
:100A500046EA010140EA020081EA0301B4EB5C04CA
:100A6000C2BFD4EB0C0541EA045170BD41F48011C2
:100A70004FF0000E013C00F3AB8014F1360FDEBFE7
:100A8000002001F0004170BDC4F10004203C35DAC3
:100A90000C341BDC04F11404C4F1200500FA05F346
:100AA00020FA04F001FA05F240EA020001F00042E7
:100AB00021F0004110EBD37021FA04F642EB06015D
:100AC0005EEA430E08BF20EAD37070BDC4F10C0487
:100AD000C4F1200500FA04F320FA05F001FA04F24B
:100AE00040EA020001F0004110EBD37041F1000137
:100AF0005EEA430E08BF20EAD37070BDC4F1200542
:100B000000FA05F24EEA020E20FA04F301FA05F2A9
:100B100043EA020321FA04F001F0004121FA04F251
:100B200020EA020000EBD3705EEA430E08BF20EA21
:100B3000D37070BD94F0000F0FD101F0004640005B
:100B400041EB010111F4801F08BF013CF7D041EADD
:100B5000060195F0000F18BF704703F000465200E1
:100B600043EB030313F4801F08BF013DF7D043EAB2
:100B70000603704794EA0C0F0CEA135518BF95EA68
:100B80000C0F0CD050EA410618BF52EA4306D1D1EF
:100B900081EA030101F000414FF0000070BD50EA0E
:100BA000410606BF1046194652EA430619D094EA98
:100BB0000C0F02D150EA013613D195EA0C0F05D182
:100BC00052EA03361CBF104619460AD181EA0301D6
:100BD00001F0004141F0FE4141F470014FF000008E
:100BE00070BD41F0FE4141F4780170BD70B54FF029
:100BF000FF0C4CF4E06C1CEA11541DBF1CEA1355A9
:100C000094EA0C0F95EA0C0F00F0A7F8A4EB05048A
:100C100081EA030E52EA03354FEA013100F0888081
:100C20004FEA03334FF0805545EA131343EA12634A
:100C30004FEA022245EA111545EA10654FEA0026FF
:100C40000EF000419D4208BF964244F1FD0404F5B8
:100C5000407402D25B084FEA3202B61A65EB030514
:100C60005B084FEA32024FF480104FF4002CB6EBD1
:100C7000020E75EB030E22BFB61A754640EA0C0051
:100C80005B084FEA3202B6EB020E75EB030E22BF91
:100C9000B61A754640EA5C005B084FEA3202B6EBD2
:100CA000020E75EB030E22BFB61A754640EA9C0091
:100CB0005B084FEA3202B6EB020E75EB030E22BF61
:100CC000B61A754640EADC0055EA060E18D04FEA1F
:100CD000051545EA16754FEA06164FEAC30343EABF
:100CE00052734FEAC2025FEA1C1CC0D111F4801F8C
:100CF0000BD141EA00014FF000004FF0004CB6E785
:100D000011F4801F04BF01430020B4F1FD0C88BF23
:100D1000BCF5E06F3FF6AFAEB5EB030C04BFB6EB2E
:100D2000020C5FEA500C50F1000041EB045170BD21
:100D30000EF0004E4EEA113114EB5C04C2BFD4EB4E
:100D40000C0541EA045170BD41F480114FF0000ED2
:100D5000013C90E645EA060E8DE60CEA135594EA4E
:100D60000C0F08BF95EA0C0F3FF43BAF94EA0C0F51
:100D70000AD150EA01347FF434AF95EA0C0F7FF4C6
:100D800025AF104619462CE795EA0C0F06D152EA1A
:100D900003353FF4FDAE1046194622E750EA4106FE
:100DA00018BF52EA43067FF4C5AE50EA41047FF40F
:100DB0000DAF52EA43057FF4EBAE12E74FEA410272
:100DC00012F5001215D211D56FF47873B3EB62529D
:100DD00012D94FEAC12343F0004343EA505311F0C4
:100DE000004F23FA02F018BF404270474FF0000056
:100DF000704750EA013005D111F0004008BF6FF094
:100E0000004070474FF00000704700BF4FEA4102BA
:100E1000B2F1E04324BFB3F5001CDCF1FE5C0DD958
:100E200001F0004C4FEAC0024CEA5070B2F1004FA2
:100E300040EB830008BF20F00100704711F0804FA5
:100E400021D113F13872BCBF01F00040704741F46A
:100E500080114FEA5252C2F11802C2F1200C10FA6E
:100E60000CF320FA02F018BF40F001004FEAC12352
:100E70004FEAD32303FA0CFC40EA0C0023FA02F3F6
:100E80004FEA4303CCE77FEA625307D150EA0133CC
:100E90001EBF4FF0FE4040F44000704701F000409C
:100EA00040F0FE4040F40000704700BF7BB972B9CB
:100EB0000029BEBF00204FF0004106E008BF002817
:100EC0001CBF6FF000414FF0FF3000F057B8ADF19C
:100ED000080C6DE904CE002909DB002B1ADB00F0B9
:100EE00087F9DDF804E0DDE9022304B070474042F1
:100EF00061EB4101002B1BDB00F07AF9DDF804E027
:100F0000DDE9022304B0404261EB4101524263EB50
:100F100043037047524263EB430300F069F9DDF885
:100F200004E0DDE9022304B0404261EB4101704777
:100F3000524263EB430300F05BF9DDF804E0DDE9C6
:100F4000022304B0524263EB4303704753B94AB9DA
:100F5000002908BF00281CBF4FF0FF314FF0FF30C1
:100F600000F00CB8ADF1080C6DE904CE00F040F9CA
:100F7000DDF804E0DDE9022304B07047704700BFEC
:100F80004FF0FF3C06E000BF4FF0010C02E000BF55
:100F90004FF0010C4DF804CD4FEA410C7FEA6C5C38
:100FA0004FEA430C18BF7FEA6C5C1BD001B050EADB
:100FB000410C0CBF52EA430C91EA030F02BF90EAC6
:100FC000020F0020704710F1000F91EA030F58BF85
:100FD000994208BF90422CBFD8176FEAE37040F0E7
:100FE000010070474FEA410C7FEA6C5C02D150EA85
:100FF000013C07D14FEA430C7FEA6C5CD6D152EA40
:10100000033CD3D05DF8040B704700BF8446104604
:1010100062468C461946634600E000BF01B5FFF703
:10102000B7FF002848BF10F1000F01BD4DF808EDD3
:10103000FFF7F4FF0CBF012000205DF808FB00BFA4
:101040004DF808EDFFF7EAFF34BF012000205DF8FE
:1010500008FB00BF4DF808EDFFF7E0FF94BF01204B
:1010600000205DF808FB00BF4DF808EDFFF7CEFF4C
:1010700094BF012000205DF808FB00BF4DF808ED8B
:10108000FFF7C4FF34BF012000205DF808FB00BF5C
:10109000844641EA000313F003036DD1403A41D383
:1010A00051F8043B40F8043B51F8043B40F8043B42
:1010B00051F8043B40F8043B51F8043B40F8043B32
:1010C00051F8043B40F8043B51F8043B40F8043B22
:1010D00051F8043B40F8043B51F8043B40F8043B12
:1010E00051F8043B40F8043B51F8043B40F8043B02
:1010F00051F8043B40F8043B51F8043B40F8043BF2
:1011000051F8043B40F8043B51F8043B40F8043BE1
:1011100051F8043B40F8043B51F8043B40F8043BD1
:10112000403ABDD2303211D351F8043B40F8043B71
:1011300051F8043B40F8043B51F8043B40F8043BB1
:1011400051F8043B40F8043B103AEDD20C3205D381
:1011500051F8043B40F8043B043AF9D2043208D079
:10116000D2071CBF11F8013B00F8013B01D30B88EB
:1011700003806046704700BF082A13D38B078DD0C9
:1011800010F003038AD0C3F10403D21ADB071CBF9B
:1011900011F8013B00F8013B80D331F8023B20F805
:1011A000023B7BE7043AD9D3013A11F8013B00F83E
:1011B000013BF9D20B7803704B7843708B788370C6
:1011C000604670474FEA410C7FEA6C5C02D150EAFE
:1011D000013C0AD14FEA430C7FEA6C5C02D152EA2F
:1011E000033C02D14FF0000070474FF00100704700
:1011F0002DE9F04786468C460846089E15467446FB
:101200001946002B40F0C2808542B2FA82F245D9DD
:101210004AB1C2F1200300FA02FC2EFA03F3954012
:1012200043EA0C0C94404FEA154EA8B2BCFBFEF802
:10123000230C0EFB18CC08FB00F943EA0C4399453C
:1012400028D9EB1808F1FF3704D2994502D9A8F143
:1012500002072B44A3EB0903A4B2B3FBFEFC0EFB75
:101260001C330CFB00F044EA0344A04214D92C19AF
:101270000CF1FF3304D2A04202D9ACF102032C449A
:10128000241A43EA07401EB1D4400023346073603F
:10129000BDE8F0874746DDE76346F1E792BB431BB5
:1012A00001214FEA154EAFB2B3FBFEFC200C0EFB42
:1012B0001C330CFB07F840EA0343984562D9EB184E
:1012C0000CF1FF3004D2984502D9ACF102002B4456
:1012D000A3EB0803A4B2B3FBFEFC0EFB1C330CFB18
:1012E00007F744EA0344A7424ED92C190CF1FF3307
:1012F00004D2A74202D9ACF102032C44E41B43EA16
:101300000040C0E7C2F1200320FA03F1954090406D
:101310002EFA03F303434FEA154EAFB2B1FBFEFCC6
:101320000EFB1C10190C0CFB07F841EA0041884524
:1013300004FA02F422D969180CF1FF3004D288456E
:1013400002D9ACF102002944A1EB08019BB2B1FB28
:10135000FEFC0EFB1C110CFB07F743EA01439F4206
:101360000ED9EB180CF1FF3104D29F4202D9ACF137
:1013700002012B44DB1B41EA004192E76046E3E7B0
:101380006146F7E76046A3E76346B7E7834206D9BD
:1013900016B9002108467BE7C6E900E0F9E7B3FA91
:1013A00083F78FB9834201D3724508D8BEEB02049C
:1013B00060EB030301209C461EB9002168E7384614
:1013C000FAE7C6E9004CF8E7C7F1200CBB4022FA67
:1013D0000CF41C432EFA0CF120FA0CF3B840014334
:1013E0004FEA14490EFA07F5B3FBF9F81FFA84FE29
:1013F00009FB18300B0C08FB0EFA43EA00439A4530
:1014000002FA07F240D9E31808F1FF3004D29A45F6
:1014100002D9A8F102002344A3EB0A0389B2B3FB6B
:10142000F9F809FB183308FB0EFE41EA03418E452B
:101430002CD9611808F1FF3304D28E4502D9A8F1E6
:101440000203214443EA0040A0FB0298A1EB0E01F5
:101450004145CE46434602D306D14D4504D2B9EBB1
:10146000020E68EB04030138002EA6D0B5EB0E0285
:1014700061EB030101FA0CFC22FA07F34CEA0303C7
:10148000F940C6E9003198E74046C5E74346D9E749
:101490002DE9F84353EC112B1046194659EC128BE9
:1014A00055EC104BFFF778FA424606460F464B467E
:1014B00040464946FFF770FA02460B463046394629
:1014C000FFF7B4F841EC100B0FF060FA204653EC34
:1014D000102B2946FFF78AFB41EC100B01F0E0FBD3
:1014E000094B51EC100B0022FFF756FA04A3D3E985
:1014F0000023FFF77BFB41EC100BBDE8F88300BF36
:1015000050455254FB210940008066400000000015
:101510002DE9F84353EC102B1046194659EC118B6A
:1015200055EC124BFFF738FA424606460F464B463B
:1015300040464946FFF730FA02460B4630463946E8
:10154000FFF774F841EC100B0FF020FA22462B46FF
:1015500051EC100BFFF74AFB41EC100B01F0A0FB24
:10156000094B51EC100B0022FFF716FA04A3D3E944
:101570000023FFF73BFB41EC100BBDE8F88300BFF5
:1015800050455254FB210940008066400000000095
:101590002DE9F04F2DED048B8DB0AF4818F099F880
:1015A0004FF47A720023AC48AC4CAD4FDFF8009397
:1015B000AC4DDFF800830EF027FAAB4BAB481B783D
:1015C0008DF82F30062623460DF12F026A21009652
:1015D00013F098F894F9003094F9010043EA0020E0
:1015E000FFF770F9A24B0022FFF7D6F998A3D3E9D1
:1015F0000023FFF7FBFA94F9023041EC180BC7E91E
:10160000000194F9030043EA0020FFF75BF9984BCF
:101610000022FFF7C1F98EA3D3E90023FFF7E6FA12
:1016200094F90430C9E9000141EC190B94F9050063
:10163000904C43EA0020FFF745F98D4B0022FFF75D
:10164000ABF983A3D3E90023FFF7D0FAB0EE491A30
:10165000F0EE691AB0EE480AF0EE680A41EC120B9F
:10166000C4E90001FFF714FF94ED002B85ED000B9A
:1016700097ED001B99ED000BFFF70AFF94ED002B8F
:1016800099ED001B88ED000B97ED000BFFF740FF75
:10169000794CDFF8249275481E238DF82E300123F3
:1016A00089ED000B0DF12E0200936A21234613F001
:1016B00029F8237803F0FA03022B48D16F4B704CC2
:1016C0001B786A488DF82F300DF12F0223466A21CE
:1016D000009613F017F894F9003094F9010043EAEA
:1016E0000020FFF7EFF8624B0022FFF755F958A3EF
:1016F000D3E90023FFF77AFA624BC3E9000194F9BA
:10170000023094F9030043EA0020FFF7DBF8584B5E
:101710000022FFF741F94EA3D3E90023FFF766FA51
:10172000594BC3E9000194F9043094F9050043EAE8
:101730000020FFF7C7F84E4B0022FFF72DF944A316
:10174000D3E90023FFF752FA504BC3E9000118F028
:1017500065F90A220023FFF7F9FBDFF860A1DFF843
:1017600060B10446DAF80000201AFFF79BF8454BF9
:10177000D3E9002306460F46FFF70EF9444BC3E9B1
:101780000001414BCDE90401D3E90023304639463D
:10179000FFF702F93F4BC3E900013C4BCDE90601DD
:1017A000D3E9002330463946FFF7F6F83A4E3B4B73
:1017B0003B4FCDE90801C3E90001D6E90023DDE98B
:1017C0000401FEF733FF374B0022FFF70FFAD7E98A
:1017D0000023C6E90001DDE90601FEF727FF314BD2
:1017E0000022FFF703FADBE90023C7E90001DDE986
:1017F0000801FEF71BFF2B4B0022FFF7F7F9CAF891
:101800000040CBE9000114480EF078F9D9E9002333
:10181000CDE90223D8E90023CDE900232248D5E908
:10182000002313F004F8DBE90023CDE90223D7E914
:101830000023CDE900231D48D6E9002312F0F7FF6D
:101840000DB0BDEC048BBDE8F08F00BFAFF300809E
:1018500000000000C0FFDF40FC190020A122002092
:10186000780E0020900E0020050A0020589F0108E5
:1018700000406F40680E00209A220020040A0020D9
:101880009B220020600E0020580E0020500E0020E9
:10189000480E0020400E0020300E0020380E0020A0
:1018A000280E002000002440FEB5010824B60108DF
:1018B000700E0020880E0020800E0020D819002015
:1018C000200E0020000000002DE9F84F6249634C13
:1018D000DFF8C0815CA3D3E90023D1E90001FFF761
:1018E0005BF80F465E495AA3D3E900230646D1E9C7
:1018F0000001FFF751F802460B4630463946FEF725
:1019000095FEC4E9000157494FA3D3E90023D1E96B
:101910000001FFF741F80F4653494DA3D3E90023D7
:101920000646D1E90001FFF737F802460B4630467C
:101930003946FEF77BFEC8E900014C494C4F4D4E3D
:1019400041A3D3E90023D1E90001FFF725F88B4635
:1019500049493FA3D3E900238246D1E90001FFF7BB
:101960001BF802460B4650465946FEF75FFEC7E994
:101970000001306850B117F04DFE054630B93368AC
:1019800001461A683D4812F052FF3560D7E9000160
:10199000FFF714FA01463748DFF8FCA012F0C8FE42
:1019A000002606EB0A054FF00009D4E90001FFF715
:1019B00005FA40B20FF0F0F82870D4E90001FFF703
:1019C000FDF940B20FF0E8F86870D4E90001FFF7C4
:1019D000F5F940B20FF0E0F809F10109B9F1080F8B
:1019E000A87005F10305E0D11836C02ED9D105F055
:1019F000CBFC234E002530460121013512F098FE24
:101A0000082D06F10806F6D14FF0FF324FF0FF33F4
:101A10001C480EF0D7F8D4E900231B480FF0A2FCB5
:101A2000D8E9002319480FF09DFCD7E90023184896
:101A30000FF098FC42F21070BDE8F84F00210EF054
:101A40003DBC00BFAFF30080666666666666EE3F2B
:101A50009A9999999999A93F900E0020180E002003
:101A6000300E0020880E0020280E0020800E00205E
:101A7000080E002098060020200E002053B6010812
:101A800068A60108F00D002086B6010899B6010885
:101A9000ACB60108100E0020A722002000000000B4
:101AA0002DE9F04F9FB08246039116461C46002553
:101AB000307810B9284600F085BD731C25280693A0
:101AC00006D00399D0470028C0F27C8501351BE27F
:101AD0001822002110A80FF0DFFB7378252B00F0EF
:101AE000BA800023711C98469E469C4618460F46B5
:101AF00011F8012B2B2A00F0DD8000F2D480202A7F
:101B000000F0DB80232A00F0DB802BB19DF8483009
:101B100043F040038DF84830B8F1000F05D09DF830
:101B2000483043F020038DF84830BEF1000F05D057
:101B30009DF8483043F010038DF84830BCF1000F99
:101B400005D09DF8483043F008038DF8483028B19F
:101B50009DF8483043F004038DF848309DF8483034
:101B600003F04401442903D16FF386138DF8483004
:101B70009DF848300E9743F080032A2A8DF84830AC
:101B800040F0A3809DF8493043F001038DF84930BF
:101B90007B1C1A782E2A9DF849200CBF01210021B8
:101BA00061F341028DF849200CD15A1C0E925A78EB
:101BB0002A2A40F09A809DF8492042F004028DF8CC
:101BC000492002331A786C2A00F0BB8000F29D8015
:101BD000682A00F0A3806A2A00F0BC804C2A00F03A
:101BE000C18013F8012B0693782A8DF84B2000F260
:101BF00001816D2A00F2C380692A00F2FB80572A16
:101C000000F2DA80412A04D0A2F14503022B00F24F
:101C1000F1809DF84A3002F0DF020421A2F1410771
:101C200061F302037A429DF849108DF84A307A41F7
:101C300062F3C7110A068DF84910CBB200F1198181
:101C400003F07802182A40F003816FF3C6038DF881
:101C500049300023F2E0B21C06928DF84B309DF81B
:101C60004930D90740F1078154F8042B0492002A27
:101C700008DA9DF8482042F004028DF84820049AC2
:101C8000524204925A0740F1FE8054F8047B002F20
:101C900080F2FD809DF849306FF341038DF84930A3
:101CA0004FF0FF37F3E02D2A0DD0302A7FF42DAF0F
:101CB00001231CE74FF0010C19E74FF0010E16E766
:101CC0004FF0010813E7012011E70EA805F01AFEF6
:101CD0000E9BBB423FF45DAF9DF848201390C00FB0
:101CE00060F341028DF8482053E70EA805F00AFE84
:101CF0009DF848301490C3F3400242EAD07262F378
:101D000041038DF848300E9B5CE7742A26D07A2A6E
:101D10007FF467AF9DF8492006210CE05A78682AC5
:101D20009DF8492006D1012161F3C6028DF84920B2
:101D3000023356E7022161F3C6028DF849200133D0
:101D40004FE75A786C2A9DF8492001D10421EBE72E
:101D50000321F0E79DF849200521ECE79DF8492093
:101D60000721E8E7BDF8482022F4F04222F0020201
:101D700042F4804242F00202ADF84820DFE76E3ABA
:101D8000D3B201229A4040F282431A429DF8493070
:101D900037D112F0240F5FD1D1072BD59DF84A20FF
:101DA00003F07803A3F14000032161F302024342F0
:101DB0008DF84A20434141E0A2F15801C9B2012007
:101DC00000FA01F111F4624F7FF423AF40F60103F2
:101DD00019429DF849301AD111F4043F0AD09DF8F8
:101DE0004A2060F3020203F07803402B8DF84A206A
:101DF0007FF42FAF9DF8483043F001038DF8483051
:101E000027E79DF84A20022161F30202EBE79DF8E3
:101E10004A10022003F0780360F30201402B8DF892
:101E20004A1002BF9DF8481041F001018DF848109A
:101E3000632A7FF40EAF003B18BF01239DF84820B2
:101E4000C2F340010B4363F341028DF8482006E7DB
:101E500013F0380FCED1FCE69DF84A20032113F091
:101E6000780F61F302028DF84A2014BF012300238A
:101E7000E4E70123E2E79DF94820002AB4BF139A62
:101E80004FF0FF32FDE69F077FF50AAF149F002356
:101E9000CDE913339DF84A3003F00702042A9DF878
:101EA000492007D1900705D49DF949100029ACBFFE
:101EB00006270D2703F00703012BC2F3C30233D11A
:101EC000D31E042B04D8DFE803F02146462121006D
:101ED0002368012A4FEAE371CDE910311CD19DF945
:101EE0004030D917CDE9103104349DF848300793BC
:101EF000990750D0069B03993246504612F0EAFCEF
:101F00000028C0F25F830544069ED1E554F8043BE7
:101F1000D917CDE91031E8E7022AE5D119B243F328
:101F2000C033CDE91013DFE7022B24D1D31E042BDD
:101F300004D8DFE803F0181010181800012A54F82C
:101F4000043B4FF0000114D0022ACDE91031CCD16E
:101F50009BB21093C9E7073424F00704F4E80201A8
:101F6000CDE91001C1E754F8043B1093002311930D
:101F7000BBE7DBB2CDE7042B08D1073424F007041C
:101F8000D4E900010834CDE91001AEE7032BACD150
:101F900054F8043BDDE79DF84BB0BBF1780FB3D8A4
:101FA000BBF1570F49D8BBF1250F00F09180BBF171
:101FB000240FA9D9BBF1410F03D0ABF14502022A8E
:101FC000A2D8DDE91012002AC0F23681079B1E0755
:101FD00000F13581C3F300194FEA4919C2F30A50E1
:101FE000C2F31302002840F02D8151EA020614BF0B
:101FF00001260026D20242EA5152C902BBF1460F25
:1020000040EA010E42EAE07C08BF4FF0660B5EEA50
:102010000C0CCDE90C1200F09C81002E40F049819F
:102020000D9A42F00042A0F2FE380D920020DDE948
:102030000C1206464FF0050C55E1ABF15801202972
:102040003FF662AF01A050F821F000BFD721000891
:10205000091F0008091F0008091F0008091F0008C0
:10206000091F0008091F0008091F0008091F0008B0
:10207000C31F0008091F00085B2100086F2100082A
:10208000C31F0008C31F0008C31F0008091F000862
:102090006F210008091F0008091F0008091F000818
:1020A000091F000811220008D7210008DD210008BF
:1020B000091F0008091F0008D7200008091F000891
:1020C000D7210008091F0008091F0008D7210008B0
:1020D00003995846F6E4002F109E3ADB3946304605
:1020E0000FF0E6FA3718002E3FF40EAF4FF000095C
:1020F0009DF84A3013F01002059200F05882023029
:1021000013F04003DDF84C80089318BF149BCDF802
:102110001C80404418BFC018049B002B40F362820F
:102120009DF848201B1A50070493C2F3800B00F15E
:102130005982510640F14982B9F1000F07D0039945
:102140004846D0470028C0F23D820135D9463022AA
:102150003CE23046FEF734F8C4E7109B8DF85C3063
:102160004FF000090DF15D0717AE0120C0E7079B96
:102170001A0758BFC3F30019DDE9102354BF4FEA13
:1021800049194FF02B09002B06DA524263EB430347
:10219000CDE910234FF02D090DF175030093DDE912
:1021A000100117AB12AA05F0C3FB0646002F0CDB8B
:1021B0009DF848200DF175039B1B6FF386129F421B
:1021C0008DF8482001D9FB1A1393002E3FF49CAEE2
:1021D0000DF175075BE04FF00009DDE7109800286E
:1021E00000F0E0810DF17503009312AA17AB0021F6
:1021F00005F09EFBBDF84A3003F0EF0343F4F043D3
:1022000043F010030646ADF84A304FF00009CDE721
:10221000109B072A3FF678AEDFE802F00C04060CAC
:1022200008080C0C1D706FE61D806DE6EA17C3E907
:10223000005269E61D6067E64FF02D09CEE64FF0CB
:102240002B09CBE640F2FF76B0422FD10BF1010310
:102250009F48DBB20A43C35C03F003031ED1012B8A
:102260000BBF492369234E216E210CBF46226622F3
:102270008DF85C309DF848308DF85D106FF3861353
:102280008DF85E208DF848300DF15F0717AEB81B52
:10229000B9F1000F3FF42CAF013029E7012B15BF36
:1022A0006E234E23612141211A46E1E70026A1E673
:1022B000013849185241002AFADACDE90C12AFE68A
:1022C000490841EAC2715208B2F1333F404608F171
:1022D0000108F5D20CFB02FEA1FB0C1200F1020872
:1022E0007244013E012018F1020FE9DB08B1CDE98B
:1022F0000C12B8F1000FDDE90C212DDCC8F104004F
:10230000A0F1200C08F11C08C24001FA08F821FADB
:102310000CFCC1400BF0DF0042EA0802472842EA09
:102320000C023AD1F01C01DBB7422BDAABF102030D
:10233000002F5FFA83FB7DDD9DF84800830607F1DF
:10234000FF3777D43B1E18BF0123059307F101081F
:102350002DE04FF0000869E6023241F100010CA8BF
:10236000CDE90C2112F087FADDE90C2108F1FF38E4
:10237000013692184941002908F1FF38F9DACDE910
:102380000C21B6E79DF848309806A7EB06074FD416
:102390003B1E18BF0123059304E00023BBF1660F29
:1023A0000593D3D117EB06084FF0660B44D4B8F170
:1023B000100FA8BF4FF010089FED437B8DED0E7BF3
:1023C00010200B90DDE90E03B8F1000F37D1121881
:1023D00041EB0301B1F1805F41D2CDE90C21079BB4
:1023E000BBF1660F03F0200240F0BB80002E41DC01
:1023F00030218DF85C10002A6CD1002F40F3B5819C
:102400002E228DF85D2086B17242BA42A8BF3A46AC
:102410009DF84A101392002AA7EB0207D4BF0022AE
:10242000012262F345118DF84A100DF15E0839E082
:102430000023B0E7002388E74FF00008BCE740081E
:1024400040EAC3705B08CDE90E030EA8CDE9082170
:1024500008F1FF3812F00FFADDE90821B2E752085F
:1024600042EAC1720CA84908CDE90C21013612F0EC
:1024700002FAB4E70DF15C080B99002909DD0BA9FC
:102480000CA8079212F00FFA013E08F8010B079A08
:10249000F2D113969AB9002F40F365812E2108F8E6
:1024A000011B0026002F1EDD0B9A002A1BDD0BA945
:1024B0000CA812F0F8F9013F08F8010BF2E72E2200
:1024C00008F8012BEDE700BF000000000000000845
:1024D000E8B201082E228DF85D20002EA5D0002F35
:1024E00092DC0DF15E08059B002B4ED114974746F8
:1024F0000BF0DF02452A23D1002EBABF76422D23EE
:102500002B23632EC8BF64217B70D1BFBA1CB6FBDE
:10251000F1F3FA1C03F13000C8BF01FB13664FF062
:102520000A01C8BFB87087F800B0B6FBF1F31746D0
:1025300003F1300001FB1363303307F8020B5370D3
:10254000139B002B2CDC149B002BD4BF00230123F6
:102550009DF84A2063F3861200238DF84A203B70D1
:1025600094E60BA90CA8079212F09DF9079A8DF832
:102570005C00302818BF06F1FF3612B9002F40F377
:10258000F4802E228DF85D204FE7474608F1FF3892
:1025900017F8012C302AF8D02E2A08BF4746A7E7A3
:1025A0000123D5E7724F81467E1F0520A0E51A075B
:1025B00048BF0130A4E5104609920399D04700288E
:1025C000099A05DA1FB0BDE8F08F2022DDF810B0BF
:1025D000594600290BF1FF3BEDDC049BCDF810B010
:1025E0002B445D1AB9F1000F05D003994846D04736
:1025F0000028E7DB0135089B002B79D09DF9493095
:10260000002B29DBDFF86C913346187819F800208D
:1026100052079B4603F101033FD49DF84A30AE1B9D
:1026200098065E4407D44246002A08F1FF383BDC96
:10263000079B33449E1A9BF800002E280AD1039969
:10264000D0470028BEDBB8F1000F06F1010631DCEF
:102650000BF1010B5D4638E0B14699F80000702897
:10266000C84609F1010913D1AE1B149D46443544F7
:10267000AB1B002B34DC03993B464246504612F01C
:1026800029F900289EDB3044049E0546064465E097
:102690000399D0470028E0DA94E705930399D047DF
:1026A0000028059BB1DA8DE703993020D047002838
:1026B000B9DA87E703993020D04708F1FF38C0E73F
:1026C0000399D0470028FFF67DAF287819F800302D
:1026D0005907A84605F10105F2D4A6EB0B06C4E79D
:1026E00003993020D0470028FFF66CAF0136BFE7D2
:1026F0009DF84A30DA0601D41B0706D5039930202D
:10270000D0470028FFF65EAF0135059B3BB103992A
:102710009DF84B00D0470028FFF654AF0135A84480
:1027200006E003993020D0470028FFF64BAF013573
:10273000A8EB0503002BF4DC03993B4632465046D8
:1027400012F0C8F80028FFF63DAF28449CE7039933
:102750002020D0470028FFF635AF0135731B002B32
:10276000F5DCFFF7D1BB1646BDE60DF15D08BAE614
:10277000C2B70108E9B20108F8B50446084610EEF0
:10278000105AFEF79FF8064628460F46FEF7ACF8AB
:1027900002460B4630463946FEF7FEF811A3D3E950
:1027A0000023FEF7F9F80E4B0022FEF71FFA06464B
:1027B0000F46FEF703FB0A4B2060002230463946E5
:1027C000FEF7EAF8FEF7FAFA4FF47A7290FBF2F3AA
:1027D00003FB120353436360F8BD00BFAFF30080F7
:1027E00000408F4005A3923A019D23400000000065
:1027F000D0B504460846FEF765F8134B0022FEF7F5
:10280000CBF80FA3D3E90023FEF7C6F80F4B002245
:10281000FEF7ECF906460F46FEF7D0FA0B4B2060A8
:10282000002230463946FEF7B7F8FEF7C7FA4FF4F4
:102830007A7290FBF2F303FB120353436360D0BD43
:102840006811F16346DF913F0080114000408F40E6
:10285000032970B504460D4605D0072955D0BDE8BB
:1028600070400AF09FBE002A3CD0072A40F0AC809E
:1028700058681A685C4BC117C2FB0301012871F14B
:1028800000033FDB594BC01841F1000150A3D3E9CD
:102890000023FEF70BFB022826690ED010280ED06D
:1028A00004280ED008282DD12946204614F00BFA12
:1028B000002808DA6FF0040070BD0025F4E7012558
:1028C000F2E70225F0E74A4B33F81500FDF7FAFF6F
:1028D00041A3D3E90023FEF75FF8FEF797FAF06013
:1028E0000020E9E71988434B33F8020B814206D1F7
:1028F000D1B220460AF03AFE0028F1DADAE70132D6
:102900000B2AF1D16FF01500D6E7002A4DD0072A27
:102910005AD15A681D683448D11713460A46C5FB78
:102920000032B425A3FB0501012B05FB021172F156
:1029300000022ADB304BC01829A3D3E9002341F160
:102940000001FEF7B3FAF52827D0B0F5FA7F26D0BC
:10295000B0F57A7F25D0B0F5FA6F24D07D28D1D19B
:10296000042529462046266914F0C0F90028A1DB79
:10297000224B33F81500FDF7A5FF214B0022FEF78F
:102980000BF8FEF743FAF061AAE71E4BC01861F19D
:10299000000113A3D3E90023D3E70025E1E70125D4
:1029A000DFE70225DDE70325DBE71988114B33F864
:1029B000020B814204D1D1B2204614F0ACF99BE75E
:1029C00001320B2AF3D19DE76FF0850074E700BF59
:1029D0003AA395000000000008AC1C5A643BAF3FCE
:1029E000D8EF2F000000000040420F009DD14A00A8
:1029F000C8B50108D0B50108ECF71700BEB501084D
:102A0000008011401408E8FF2DE9F047164690B009
:102A100005460F46002209A930460FF0A5F9099B8B
:102A20001B780446B3B1DFF82881002458F8041B52
:102A30003046FDF739FC68B10134392CF6D128460F
:102A4000414A3346012112F0A9FD6FF0850010B014
:102A5000BDE8F087BB680AAA1B69A1B2384698474F
:102A60000028F4DB0B98FDF72DFF35A3D3E90023F5
:102A7000FEF7BCF806460A980F46FDF723FF02460C
:102A80000B4630463946FDF7D1FD382C06460F4639
:102A900009D9CDE900672D4A23460821284612F0BE
:102AA0007DFD0020D3E72A4BE21E082A53F824A01C
:102AB00004D840F21113D340DB070AD4CDE90267F2
:102AC000244ACDF800A023460821284612F066FDCE
:102AD000E7E70F98FDF7F6FE19A3D3E90023FEF709
:102AE00085F880460E988946FDF7ECFE02460B46B7
:102AF00040464946FDF79AFDCDE906010D98FDF7E0
:102B0000E1FE0FA3D3E90023FEF770F880460C988E
:102B10008946FDF7D7FE02460B4640464946FDF77B
:102B200085FDCDE90267CDE904010B4ACDF800A08F
:102B300023460821284612F031FDB2E7AFF30080AA
:102B40000000000080842E4109DE010825DE010816
:102B50006407002044DE010860DE01080000000078
:102B60002DE9F0472DED028B9FED498B4A4E84B045
:102B700004464FF01003EFF3118783F31288BFF37D
:102B80006F8FD4F8F8508DB9022104F5887016F0D3
:102B9000B7FD002843D100238DED008B029304F58F
:102BA000807239463D480DF00BFCE2E7D4F8FC207A
:102BB0002B68C4F8F830954208BFC4F8FC30D4F84C
:102BC000103143F00203C4F81031EB6823F0040322
:102BD00043F00103EB606B6887F31188BFF36F8FDD
:102BE000284698474FF01003EFF3118983F31288BA
:102BF000BFF36F8FEB68990723F0010219D4EA60E5
:102C0000D4F8103123F00203C4F8103189F311888D
:102C1000BFF36F8FDB05ACD40DF0CEFAA9E704F556
:102C2000847500220121284616F09EFE0028F8D166
:102C3000B1E7306823F00303EB600028E0D0002701
:102C4000D0F80080BA460028DAD0426895420146A2
:102C50000BD1016897B972683160824200D171600E
:102C600040F808AB0CF088FF3946B8F1000F0BD0E4
:102C7000D8F8002040460F469046E4E73960726875
:102C8000824208BF7760EBE74246F3E7AFF300808C
:102C9000FFFFFFFFFFFFFFFF302200208E230020F9
:102CA0002DE9F84F55EC104BBD4B25F000469E42E8
:102CB000AA4617D9BB4B9E420AD807D0BAF1000FDB
:102CC00040F3CB809FED9A0BBDE8F88F002CF5D038
:102CD00022462B4620462946FDF7A8FC41EC100B66
:102CE000BDE8F88FB04B9E4200F2BB80A3F1DE73CB
:102CF0009E4240F2A1804FF0FF3B22462B462046E9
:102D00002946FDF749FE02460B4680468946FDF7F7
:102D100043FE89A3D3E9002306460F46FDF73CFE98
:102D200087A3D3E90023FDF781FC32463B46FDF73C
:102D300033FE85A3D3E90023FDF778FC32463B46FA
:102D4000FDF72AFE82A3D3E90023FDF76FFC32468C
:102D50003B46FDF721FE80A3D3E90023FDF766FC87
:102D600032463B46FDF718FE7DA3D3E90023FDF76D
:102D70005DFC42464B46FDF70FFE7BA3D3E90023E3
:102D80008046894630463946FDF706FE78A3D3E9EA
:102D90000023FDF749FC32463B46FDF7FDFD76A3D7
:102DA000D3E90023FDF740FC32463B46FDF7F4FD36
:102DB00073A3D3E90023FDF737FC32463B46FDF70A
:102DC000EBFD71A3D3E90023FDF72EFC32463B4611
:102DD000FDF7E2FD02460B4640464946FDF726FC5C
:102DE00022462B46FDF7D8FDBBF1FF3F02460B46BE
:102DF00058D06E4B6E4E03EBCB03D3E90023FDF7A7
:102E000013FC22462B46FDF70FFC06EBCB060246D1
:102E10000B46D6E90001FDF707FCBAF1000F41ECC3
:102E2000100BBFF65DAF10EE901A024601F10043A1
:102E300043EC102BBDE8F88F55A3D3E900232046BF
:102E40002946FDF7F3FB5B4B0022FEF717F900283C
:102E50003FF451AF45EC104B42E79FED4F0BBDE8FF
:102E6000F88F0DF08BFD544B9E4255EC104B21D842
:102E7000A3F550239E424AD822462B462046294697
:102E8000FDF7D4FB4B4B0022FDF7CEFB02460B4671
:102E90002046294614461D464FF0000B00224FF0F5
:102EA00080431EE020462946FDF7BEFB41EC100B97
:102EB000BDE8F88F414B9E421ED2414B0022204676
:102EC0002946FDF7B1FB02460B462046294614462B
:102ED0001D4600223A4B4FF0020BFDF75DFD354BCE
:102EE0000022FDF7A3FB02460B4620462946FDF7CC
:102EF0007DFE04460D4600E722462B463149002060
:102F0000FDF774FE4FF0030B04460D46F5E6294B22
:102F1000002220462946FDF787FB02460B46204645
:102F200029464FF0010B14461D46D8E7AFF3008049
:102F3000182D4454FB21F93F11DA22E33AAD903FBA
:102F4000EB0D76244B7BA93F513DD0A0660DB13FE0
:102F50006E204CC5CD45B73FFF8300922449C23F48
:102F60000D5555555555D53F2F6C6A2C44B4A2BF0D
:102F70009AFDDE522DDEAD3F6D9A74AFF2B0B33FD5
:102F8000711623FEC671BC3FC4EB98999999C93F4D
:102F90009C7500883CE4377E182D4454FB21F9BF12
:102FA000FFFF0F440000F07FFFFFDB3F30A501086B
:102FB00050A501080000F03FFFFFF23F00800340F2
:102FC0000000F83F0000F0BF2DE9F04F2DED028B1F
:102FD000D3B00C46CDE9080192460B930FF0C4FA2A
:102FE000036813931846FDF7EBF8A38912901D06AA
:102FF00003D52369002B00F08A870023CDF810A0A9
:10300000CDE92733CDE91533CDE917330E9314936A
:103010000793049B9FEDA27B1B7829AA8DED107B63
:1030200026929346002B00F0EB81DDF810A004E01F
:103030001AF8013F002B00F01C81252BF8D1049BCE
:10304000BAEB030540F01A819AF80030002B00F02B
:10305000D78100239AF801508DF87B3006930AF14E
:10306000010A4FF0FF3903930AF1010AA5F1200389
:103070005A2B00F23B81DFE813F0A5023901390138
:103080009E023901390139016A00390139016602AC
:10309000780239017102850239017E025B005B0012
:1030A0005B005B005B005B005B005B005B00390169
:1030B000390139013901390139013901CF013901AA
:1030C00034028700CF01CF01CF0139013901390125
:1030D0003901C20239013901B5003901390139011B
:1030E0003E023901B00239013901010739013901C4
:1030F000390139013901390139013901CF0139016A
:1031000034028B00CF01CF01CF01F2028B0080008F
:103110003901E8023901DA02B900C9028000390137
:103120003E027D00250739013901280739017D005C
:10313000A5F1300300221AF8015B02EB820203EBD7
:103140004202A5F13003092BF5D906928EE7089DBE
:1031500028460FF009FA436817931846FDF730F830
:103160001890044628460FF0FFF983681593002C49
:1031700040F070869AF8005076E7039B9AF800506A
:1031800043F0200303936FE7039B43F01003039383
:10319000039B9C0640F194810B9B073323F00703AC
:1031A0001A46596852F8083B0B920A460029C0F2A9
:1031B000BB85B9F1FF3F00F0F587039921F0800648
:1031C00053EA020100F05A850A2B72F1000180F0E7
:1031D0007C8730338DF847310DF247130396049303
:1031E000012634E0039B43F010030393039B13F089
:1031F000200200F054810B9B073323F0070319468C
:103200005A6851F8083B0B91039921F4806600211C
:103210000020B9F1FF3F8DF87B0000F0938226F08B
:103220008000039053EA020040F08B82B9F1000F56
:1032300040F0C187002940F0268516F001061BBF2B
:1032400030238DF8473152AB0DF24713049300231E
:10325000B145CDE90C3349469DF87B200A93B8BFB0
:10326000314605910F93002A52D0059B01330593F7
:103270004EE0049BBAEB030500F0C280049B289F3C
:10328000CBE90035279B01332F44072B2897279341
:103290000ADC0BF1080B079B2B440793D4E600BF15
:1032A0000000000000000000DDE9080126AA0FF080
:1032B000F9FD80B90DF1A40BEDE7DDE9080126AABF
:1032C0000FF0F0FD002800F08A800A9B1BB10A99DC
:1032D00008980FF027F8099B9B89590601F1E582B0
:1032E000079853B0BDEC028BBDE8F08F002D00F0C5
:1032F000878000228DF8E4508DF87B200123CDE9F2
:103300000C2205931E4639AB0A9291460F92049304
:10331000039B13F0020302D0059902310591039932
:1033200011F0840405D1DDE905010F1A002F00F327
:103330004183289F8AB1279A0DF17B010132013721
:10334000CBF80010072A4FF0010128972792CBF8FD
:10335000041000F387830BF1080B83B1279B1FAA8E
:1033600001330237CBF80020072B4FF002022897D9
:103370002793CBF8042000F383830BF1080B802CF8
:1033800000F0FC81A9EB0608B8F1000F00F34282BF
:10339000039BDA0500F16D81049BCBF80030279B7D
:1033A000CBF804600133F519072B2895279300F318
:1033B000AA820BF1080B039B580705D5DDE905230D
:1033C0009C1A002C00F36E83DDE9062305998A42DE
:1033D000ACBF9B185B180793002D7FF46EAF0023E2
:1033E00027930A9B1BB10A9908980EF09BFF0DF1D9
:1033F000A40BCDF810A0049B1B78002B7FF415AE16
:10340000289B002B3FF467AF099C089826AA214609
:103410000FF048FDA38960E70B9B073323F00703F8
:10342000B3EC027B57EC176B0B9327F000431B9315
:103430008DED1A7ADDE91A01AE4B4FF0FF328DEDBA
:10344000107BFDF7BFFE002840F09B84DDE91A01E8
:10345000A84B4FF0FF32FDF7FDFD002840F09184AE
:103460000022002330463946FDF7EAFD002840F0EF
:103470005B879DF87B20039B9F4C23F08003039385
:103480009E4B472DC8BF1C4603210023CDE90C33BA
:1034900004940A9305910E4699460F93E3E60B991F
:1034A00051F8043B0B91039911F010017FF4ACAE7D
:1034B000039A12F0400000F019879BB20A46A3E677
:1034C0000B9A52F8043B0B92039AD00600F15584F4
:1034D000039A510640F14D8443F3C03211461BB2AA
:1034E00064E60B9B002253F8041B8DF87B208DF8BB
:1034F000E4100B9302E70B9F57F8043B049300265C
:103500008DF87B60002B00F09E86B9F1FF3F00F044
:103510000D8504984A463146FDF732F80A90002896
:1035200001F025810A9B049A0B97B1469E1A26EA60
:10353000E673CDE90C999DF87B200593CDF8289092
:10354000CDF83C908FE60B9B53F8042B0692002A93
:1035500080F20A84069A0B9352420692039B9AF8D1
:10356000005043F0040303937EE52B239AF80050A8
:103570008DF87B3078E5039B9AF8005043F0800388
:10358000039371E5524612F8015B2A2D01F019826E
:10359000A5F13003092B92464FF000093FF666ADC6
:1035A0001AF8015B09EB890903EB4909A5F130031E
:1035B000092BF5D95AE5039B9AF8005043F0010313
:1035C000039351E59DF87B309AF80050002B7FF46F
:1035D0004BAD20238DF87B3046E5039B43F010066E
:1035E00016F0200200F089830B9B073323F00703BA
:1035F00019465A6851F8083B0B91012108E6039BD4
:103600009AF8005043F0080303932DE50B9A039BAF
:1036100043F0020652F8043B0B9247F63002ADF835
:103620007C20374A1492022100227825F0E5039B82
:103630009E0640F1FD830B9B079A1B681A60D21708
:103640005A600B9B04330B93D3E69AF80050039B0C
:103650006C2D00F0538443F01003039304E59AF8B3
:103660000050039B682D00F0408443F04003039317
:10367000FAE4652D40F35381DDE9100100220023B7
:10368000FDF7D4FC002800F04982279B1D4ACBF8A7
:103690000020013301370122072B28972793CBF80D
:1036A000042000F38E850BF1080B209B0E9A9342A9
:1036B00004DB039BDB0701D43D467CE6129B139A97
:1036C000DD19CBE90023279B28950133072B27938E
:1036D00000F3FE830BF1080B0E9B5C1E002C7FF7A2
:1036E0006AAE102C279B084F40F37885DDE90889E6
:1036F000102611E0FFFFEF7FECB30108F0B30108E3
:10370000FCB301082CB4010830B401080BF1080B1C
:10371000103C102C40F3628501331035072BCBE9A8
:103720000076CDE92735F1DD26AA494640460FF05F
:10373000B9FB00287FF4C9ADDDE927350DF1A40BF5
:10374000E6E7039E01293FF43FAD022900F07681B0
:1037500052AC03F00701DB0843EA4273D208303170
:1037600053EA0207204604F8011DF2D1F70704943A
:1037700000F1768252AB03961E1B68E5DDE9052356
:10378000A3EB0208B8F1000F7FF7FCADB8F1100F02
:103790003A46279BC04F29DD19951C961024DDE978
:1037A0000865194606E0A8F11008B8F1100F0BF1F2
:1037B000080B18DD013110320729CBE90074CDE97F
:1037C0002712F0DD26AA294630460DF1A40B0FF092
:1037D00069FB00287FF479ADA8F11008B8F1100F4B
:1037E000DDE92712E6DC199D1C9E0B460133CBF860
:1037F0000070072B08EB0207CDE92737CBF80480D0
:1038000000F30E85A9EB0608B8F1000F0BF1080BC9
:103810007FF7BEADB8F1100F3A46279B9E4F2EDDC5
:103820005946089CC3464FF01009B84637462E4605
:10383000099D06E0ABF1100BBBF1100F01F108017F
:1038400018DD013394481032072BC1E90009CDE996
:103850002732EFDD26AA294620460FF023FB002859
:103860007FF433ADABF1100BBBF1100FDDE9273264
:1038700029A9E6DC35463E464746D8468B46013305
:10388000CBF80070072B08EB0207CDE92737CBF800
:10389000048000F325820BF1080B79E5279B7F4913
:1038A000CBF8001001337D1C0121072B28952793AD
:1038B000CBF8041000F34A850BF1080B002A40F006
:1038C000E084039B0E9A03F0010313433FF473ADAE
:1038D000129B139A5919CBE90023279B2891013396
:1038E000072B279300F3EF850BF1080B049ACBF815
:1038F00000200E9ACBF8042001335518072BCDE990
:1039000027357FF756ADDDE9080126AA0FF0CAFA80
:1039100000287FF4DAAC289D0DF1A40B4BE50E9B3B
:10392000012B0BF1080640F37A81049BCBF80030A1
:10393000279B013301370122072B28972793CBF8C8
:10394000042000F3F981129A03F10108139BD519A1
:10395000B8F1070FC6E90032CDE9278500F3F881F9
:1039600008360E9BDDE9100103F1FF390022002328
:10397000FDF75CFB002840F08B81049CC6F80490A6
:1039800008F1010801344D44B8F1070FCDE927854E
:10399000346000F359810836169A726008F1010309
:1039A0001544072B22AACDE927353260ABDC06F19E
:1039B000080B00E5102FDDE92721DFF8E4802DDD7D
:1039C00019934346CDE91C45B046DDE908451E463E
:1039D00004E0103F102F0BF1080B19DD01321031FC
:1039E0001023072ACDE92721CBF80060CBF804305B
:1039F000EFDD26AA294620460DF1A40B0FF052FA5E
:103A000000287FF462AC103F102FDDE92721E5DCB0
:103A1000DDE91C453046199B464680460132394453
:103A2000072ACBF80080CBF804702891279200F386
:103A3000A9839DF87B200BF1080B7AE4149C52A912
:103A400003F00F001B09205C01F8010D43EA02732B
:103A5000120953EA0200F3D152ABCDE903615E1AB9
:103A6000FFF7F5BBDDE9080126AA19930FF01AFA52
:103A700000287FF42AAC289F199B0DF1A40B6CE45D
:103A8000DDE9080126AA0FF00DFA00287FF41DAC2D
:103A9000289F0DF1A40B72E430B401082CB4010886
:103AA00040B40108102C279BDFF8CC8323DD474668
:103AB000DDF82490DDF82080102604E0103C102C66
:103AC0000BF1080B16DD01331035072BCBE900761F
:103AD000CDE92735F2DD26AA494640460DF1A40B73
:103AE0000FF0E0F900287FF4F0AB103C102CDDE97A
:103AF0002735E8DCB84601332544072BCBE90084A1
:103B0000CDE927357FF760ACDDE9080126AA0FF083
:103B1000C9F900287FF4D9AB289D55E4209A002AE2
:103B20007FF7BCAE0C9E0E9B049A9E42A8BF1E4619
:103B3000002E134419930BDD279B01333744072BC9
:103B4000CBE900262897279300F39F850BF1080BFC
:103B50000C9D002EA8BFAD1B002D00F3EF81049B30
:103B60000C9A13449946039B5E0500F10C82209C3D
:103B70000E9B9C4203DB039AD50740F18E84129B77
:103B8000139ADD19CBE90023279B28950133072BD6
:103B9000279300F3DE850BF1080B0E9B1C1B199B72
:103BA000A3EB0906A642A8BF2646002E0DDD279BE3
:103BB000CBF8009001333544072BCBF804602895EF
:103BC000279300F3E0850BF1080B002EA8BFA41B80
:103BD000002C7FF7F0AB102C279BA64F40F3FE8202
:103BE000DDE90889102605E00BF1080B103C102CCC
:103BF00040F3F48201331035072BCBE90076CDE991
:103C00002735F1DD26AA494640460FF04BF900283A
:103C10007FF45BABDDE927350DF1A40BE6E7039BF1
:103C2000DC073FF582AE049BCBF80030279B03F105
:103C300001087D1C0123B8F1070F2895CDF89C8061
:103C4000CBF804307FF7A8AEDDE9080126AA0FF013
:103C500029F900287FF439ABDDE9278529AE9BE6F9
:103C6000302900F0C882049A03963023023802F803
:103C7000013C52AB1E1A0490FFF7E9BAB9F1000FEC
:103C80007FF4A7AA039652AB4E460493FFF7DFBA20
:103C90000E9B012B7FF780AE112B764F40F3E48211
:103CA00043461024DDE9088B06E00836A9F1100927
:103CB000B9F1100F40F3D78201331035072BC6E955
:103CC0000074CDE92735F0DD26AA594640460FF0AD
:103CD000E9F800287FF4F9AADDE9273529AEE5E700
:103CE000DDE9080126AA0FF0DDF800287FF4EDAA2F
:103CF000289F0DF1A40BFFF74BBB0B9951F8043B28
:103D00000B9116F010010CD116F0400004D00A46B9
:103D10009BB20121FFF77CBA16F400721CBFDBB224
:103D200002460121FFF774BA5B42039E62EB420236
:103D30002D200121FFF76DBADDE9080126AA0FF059
:103D4000B1F800287FF4C1AADDE9273729AEFAE5EA
:103D5000DDE9080126AA0FF0A5F800287FF4B5AA2E
:103D6000DDE9278529AEFCE59AF800500B93FFF7B3
:103D70007BB9039A920500F1A083DA171146FFF789
:103D800015BADDE9100102460B46FDF71BFA0028C3
:103D900040F0CC85612D00F09584412D00F0038525
:103DA000B9F1FF3F00F0AA8325F02003472B04D18F
:103DB000B9F1000F08BF4FF00109DDE91001039CC4
:103DC000002944F480720592C0F2B584002341ECCE
:103DD000180B19930A93A5F14103252B00F2C48215
:103DE000DFE813F09603C202C202C2028F039303FC
:103DF000C202C202C202C202C202C202C202C202A3
:103E0000C202C202C202C202C202C202C202C20292
:103E1000C202C202C202C202C202C202C202C20282
:103E2000C202C202C202C202C202C2028F039303D2
:103E3000039BDD0600F10182039B5C0600F13783E2
:103E4000039B980540F1F9810B9B079A1B681A7038
:103E5000FFF7F7BB159B9AF80050002B3FF404A91D
:103E60001B78002B3FF400A9039B43F4806303936A
:103E7000FFF7FAB830B4010840B40108BD4B149301
:103E8000039B13F0200200F002810B9B073323F009
:103E9000070319465A6851F8083B0B910398C1076C
:103EA0000AD553EA020107D040F002010391302104
:103EB0008DF87D508DF87C10039921F480660221E5
:103EC000FFF7A6B9039EFFF78BBBAB4B1493D7E765
:103ED000DDE9080126AA0EF0E5FF00287FF4F5A928
:103EE000289D0DF1A40BFFF7F7BB43F400739AF87C
:103EF000015003930AF1010AFFF7B6B843F020031B
:103F00009AF8015003930AF1010AFFF7ADB8089837
:103F100040210CF055FE099B18601861002800F044
:103F2000C184099A40235361FFF767B804980B973F
:103F3000FCF746F9B1460646FFF7F9BA102D3A46A6
:103F4000279B8E4F40F3E181DDE90848102605E00C
:103F50000BF1080B103D102D40F3D78101331032C7
:103F6000072BCBE90076CDE92732F1DD26AA4146C1
:103F700020460EF097FF00287FF4A7A9DDE927323D
:103F80000DF1A40BE6E70D99CDF870A05A4638461E
:103F90007A4EDDF854A0189BDDF824B04F464FF060
:103FA0001008DDF83C9081B3B9F1000F00F0FD80FE
:103FB00009F1FF391799C2E9001327990131184413
:103FC00007292890279173DC0832199C9AF8001071
:103FD000E51B8D42A8BF0D46002D0CDD2799013150
:103FE00028440729C2E900752890279100F3098128
:103FF0009AF800100832002DACBF4C1B0C46002C68
:1040000012DC0F440D990029CED1B9F1000FCFD1A8
:10401000199BCDF854A0B9469945DDF870A0934698
:10402000074628BF9946A2E5102C279940F39084B3
:10403000089D04930C9604E0103C102C02F1080239
:1040400015DD013110300729C2E90068CDE92710DC
:10405000F2DD26AA594628460EF024FF00287FF4F8
:1040600034A9103C102CDDE9271029AAE9DC049BB7
:104070000C9D1560013120440729CDE927105460BB
:1040800000F310839AF8001008320F44BAE70B9936
:1040900051F8043B0B91039911F010017FF4FEAE2F
:1040A000039A12F0400000F029819BB20A46F5E61F
:1040B0000898049326AA59460EF0F4FE00287FF4CF
:1040C00004A92898049B29AA7FE70021CDE904567A
:1040D00006F48067DFF8A880159ECDF80CA052ACDE
:1040E0008C4605E00A2B72F1000235D353462A466E
:1040F000991841F10001A8FB010525F0030000EB30
:104100009500091A581A4FF0CC3562F1000E05FBE4
:1041100000F508FB0E55A0FB08A005440AF0010EAF
:104120000520AEFB000E40184FEA5A0A303004F862
:10413000010C4AEAC57A0CF1010C013C6D08002F14
:10414000D0D031788C45CDD1BCF1FF0FCAD00A2B2D
:1041500072F1000280F0ED801596DDE9045652AB55
:10416000DDF80CA0CDF838C0CDE903641E1BFFF7C5
:104170006EB800BF10B40108FCB3010830B40108E8
:10418000CDCCCCCCDDE9080126AA19930EF08AFE2D
:1041900000287FF49AA89DF87B20199B0DF1A40BB1
:1041A000FFF7C7B8039EFFF70FB80D9901390AF161
:1041B000FF3A0D91FEE60129039E7FF4C6AAFFF7A0
:1041C00008B8DDE9080126AA0EF06CFE00287FF48D
:1041D0007CA8289F0DF1A40BFFF767BA0133254493
:1041E000072BCBF80070CBF80440CDE927357FF7DB
:1041F000E0A8FFF788BB049A039652AB9E1AFFF71C
:1042000026B80898049326AA59460EF04BFE0028BB
:104210007FF45BA89AF800102898049B29AAEAE684
:10422000DDE9080126AA0EF03DFE00287FF44DA826
:10423000289F0DF1A40BFFF7A5B80B9B079A1B68ED
:104240001A60FFF7FEB94E46062E1A4628BF06260C
:1042500099460A93C14B0596CDE90C220B9704931E
:104260000F92FFF700B8984608F101084D44B8F1E5
:10427000070FCDE927853760C6F804907FF78BAB31
:10428000E2E4129B13985919CBE90003279B28916C
:104290000133072B279300F316810BF1080B002A3B
:1042A000BFF624AB56421032AD4F80F2D382DDE927
:1042B0000848102505E00BF1080B103E102E40F3C6
:1042C000C98201331031072BCBE90075CDE92731C5
:1042D000F1DD26AA414620460EF0E4FD00287EF4DA
:1042E000F4AFDDE927310DF1A40BE6E7039A12F4F0
:1042F00000721CBFDBB20246FEF786BF039A12F4BF
:1043000000721CBFDBB20246C8E50133CBF8007077
:10431000072B05EB0207CDE92737CBF8045000F354
:10432000E0800BF1080B1AE42D228DF87B20FFF7BB
:10433000A2B8189B1799E41A1A4620460DF084F982
:10434000737803B101364FF0000CCFE6DDE90801C8
:1043500026AA0EF0A7FD00287EF4B7AF209A289D6C
:104360000DF1A40BFFF7AABA4F46022124AB01932B
:1043700021AB00930898B0EE480AF0EE680A20AB33
:104380003A4602F0ADF8672D049000F00E82472DFA
:1043900000F09D82049B25F02008B8F1460F03EB46
:1043A000070605D11B78302B00F0E482209F3E44A5
:1043B00051EC180B00220023FCF738FE002800F017
:1043C00040813346049A9B1A0E93209A0C92B8F1BE
:1043D000470F00F02481B8F1460F00F0FE81531E14
:1043E000612D209300F0DE82412D40F0208150218C
:1043F0000120002BB6BFC2F101032B222D22092B75
:104400008DF888108DF8892040F33D820DF19706D4
:10441000544F32461046A7FB0312D20802EB82012A
:10442000A3EB4101303100F8011C19466329134602
:1044300000F1FF32EEDC303302F8013C831EB34260
:1044400080F0BC820DF1890213F8011B02F8011FF4
:10445000B342F9D152AB181AA0F1AD0316930E9BDB
:10446000169A012B03EB020640F32D82129B1E4489
:1044700024F4806343F4807303930023CDE90C3369
:1044800026EAE6720F930592199B002B40F0D2802A
:104490009DF87B209946FEF7E6BE199A1C1BA2EBFD
:1044A0000906A6423D46A8BF2646FFF78EBB0B9BDA
:1044B000079A1B681A80FFF7C4B843F3C01211466D
:1044C0005BB2FEF773BEDDE9080126AA0EF0EAFC36
:1044D00000287EF4FAAEDDE92731209A0DF1A40B15
:1044E000DDE6DDE9080126AA0EF0DCFC00287EF4FA
:1044F000ECAE289F0DF1A40BFFF731BB4FF006097E
:104500005BE409F10107022130E74F4603212DE763
:1045100020A8B0EE480AF0EE680A0EF047FC002230
:104520004FF07F5351EC100BFCF736FA00220023BA
:1045300006460F46FCF77AFD002840F0BB810A4B87
:10454000039309F1FF33CDE91C9B0D95CDE90E4A8C
:10455000DDF81080DDF80CB01D460DE024B4010834
:1045600030B40108CDCCCCCC10B40108002200231B
:10457000FCF75CFDF0B94D46AD4B002230463946A4
:10458000FCF70AFA0F460646FCF718FC0446FCF74F
:1045900099F90B46024639463046FCF745F81BF8B8
:1045A0000430C24608F8013B6B1C05F1FF39064692
:1045B0000F46DBD19F4B0C950022304639460D9DAE
:1045C0000D94DDE91C9B0E9CCDF838A0DDF83CA0D5
:1045D000FCF754FD002840F00E81964B30463946DA
:1045E0000022FCF723FD18B10D9BDF0700F10381CA
:1045F0000C9B002BC0F21A810C9B013343443022E8
:1046000008F8012B4345FBD1049A9B1A0E9325F021
:104610002008DAE6049A249B9B1A209A0E93D31C56
:104620000C9201DB914518DA531E023D2093E9B24A
:104630000020DEE62D228DF87B204FF00009FEF7EA
:1046400014BE249BB342BFF4BDAE30215A1C249249
:104650001970249B9E42F9D8B4E60E9B934200F356
:10466000AB80E30740F16081129BD618670502D545
:10467000002A00F33381059B039326EAE673059332
:10468000672500230F930D93FEE6DDE9080126AAB6
:104690000EF008FC00287EF418AE289F0DF1A40B44
:1046A000FFF756BA0898049326AA59460EF0FAFB6B
:1046B00000287EF40AAE9AF800102898049B29AAD4
:1046C0000F449FE478238DF87D3030238DF87C30C3
:1046D000039BB9F1630F43F0020400F3AF800023A2
:1046E0000A9339AB0493039B43F481730593119BA5
:1046F000002B23DB9DED108B00231993612D7FF49C
:104700006AABB0EE480AF0EE680A20A80EF04EFB45
:1047100000224FF07F5351EC100BFCF73DF90022C3
:10472000002306460F46FCF781FC002840F0C280BB
:10473000414B039305E70023039C0A93DDE9102313
:1047400003F1004308EE903A2D2308EE102A199346
:10475000D4E7DDE9080126AA0EF0A4FB00287EF4C8
:10476000B4AD209C289D0DF1A40BFFF716BA4E4660
:10477000CDF81490CDE90C009DF87B200B97814675
:104780000F90FEF770BDDDE9080126AA0EF08AFB46
:1047900000287EF49AAD209C0E9B289D1C1B0DF1D9
:1047A000A40BFFF712BA58238DE7E6077FF532AF67
:1047B000C6194FF04708FBE50E9B129A9E180C9BFA
:1047C000002B40F3C8806725620500F18880059BB7
:1047D000039326EAE673059353E70C9A04F001036A
:1047E000002A43EA090340F3D580002B40F0BD8046
:1047F0000C9E6625E8E70E9B039A2493D17B18F85C
:10480000013C8B42424609D1302002F8010C249A27
:10481000531E249312F8013C9942F6D0392B0BBF5A
:10482000039B01339B7ADBB202F8013C4346EBE683
:10483000000030400000E03FFCB30108089809F197
:1048400001010CF0BDF90490002800F0C980049B20
:104850000A9348E701333144072BCDE92731CBF8E0
:104860000070CBF804607FF73FA8DDE9080126AAB5
:104870000EF018FB00287EF428ADDDE927310DF19C
:10488000A40BFFF733B8002840F0818030228DF868
:104890008A200DF18B02303302F8013B22ABD31A90
:1048A0001693DCE5089A0C2313604FF0FF3307934F
:1048B000FEF716BD4E4B4F4A612D18BF1A46012315
:1048C000039220933DE6E2077FF5D2ADCEE5E10706
:1048D0007FF5A0AE049BA846DE1969E5672515990A
:1048E0000B78FF2B78D000240C9A204603E001308F
:1048F0000131FF2B08D0934206DAD21A4B78002BF5
:10490000F5D10B780134F4E715910D900F940C92CA
:10491000059B0D9A03930F9B1344189A02FB0366A1
:1049200026EAE6730593AFE516469FE6119B324CE7
:10493000002B039BA8BF9DF87B2023F08003B8BF0A
:104940002D220393B8BF8DF87B202C4BFEF799BD29
:104950002B4DFFF78EBBC3F101031E44059A039252
:1049600026EAE673059367258BE6129BD6184E441C
:10497000662529E751EC180B00220023FCF756FBB3
:1049800000287FF413ADC7F1010720970FE50DF163
:104990008A0280E743B9059B0393012305936625AB
:1049A0001E466EE6702123E5059B0393129B5E1C59
:1049B0004E4426EAE6730593662562E602231693C3
:1049C0004DE50B9B9AF80150924653F8042B0B933C
:1049D00042EAE279FEF748BB00230F930D9397E775
:1049E00009998B8943F0400213468A81FEF775BC12
:1049F00010B40108FCB30108F4B30108F8B30108CE
:104A000030B40108000000002DE9F04F2DED028BBD
:104A1000D3B01C46CDE90610924605460DF0A4FD24
:104A20000368139318460B94FBF7CAFB12901DB151
:104A3000AB6B002B00F02482069B5A6EB3F90C304E
:104A4000D00702D4990540F1BC861A0740F1CA800C
:104A5000069A1269002A00F0C58003F01A020A2A99
:104A600000F0CF800023CDF810A0CDE92733CDE9A9
:104A70001533CDE917330E9314930993049B9FEDDF
:104A80008C7B1B7829AA8DED107B26929346002BF8
:104A900000F09C81DDF810A004E01AF8013F002B23
:104AA00000F0C680252BF8D1049BBAEB030540F03B
:104AB000C4809AF80030002B00F0888100239AF817
:104AC00001508DF87B3008930AF1010A4FF0FF394D
:104AD00003930AF1010AA5F120035A2B00F2EC809E
:104AE000DFE813F0B502EA00EA00AE02EA00EA00ED
:104AF000EA006A00EA00EA0076028802EA0081021F
:104B00009502EA008E025B005B005B005B005B00CD
:104B10005B005B005B005B00EA00EA00EA00EA0081
:104B2000EA00EA00EA007B01EA000202D9017B0107
:104B30007B017B01EA00EA00EA00EA00D202EA0017
:104B4000EA003402EA00EA00EA000C02EA00C002CD
:104B5000EA00EA003307EA00EA00EA00EA00EA00B5
:104B6000EA00EA00EA007B01EA000202DD017B01C3
:104B70007B017B010A03DD01D201EA000003EA00A8
:104B8000D9023802E702D201EA000C027D00560782
:104B9000EA00EA005907EA007D00A5F1300300228F
:104BA0001AF8015B02EB820203EB4202A5F130032B
:104BB000092BF5D908928EE7079D28460DF0D4FC05
:104BC000436817931846FBF7FBFA189004462846EB
:104BD0000DF0CAFC83681593002C40F0A6869AF865
:104BE000005076E7069D079829460DF00BF900283E
:104BF00041F06883B5F90C3003F01A020A2A7FF4F9
:104C000031AF0699B1F90E20002AFFF62BAF4A6E9C
:104C1000D60702D49D0541F17D81DDE906102346CA
:104C2000524653B0BDEC028BBDE8F04F0DF0AAB870
:104C3000049BBAEB030500F0C980049B289FCBE9D5
:104C40000035279B01332F44072B2897279305DC3A
:104C50000BF1080B099B2B4409932AE7DDE90610A9
:104C600026AA0EF0A3F980B90DF1A40BF2E7DDE955
:104C7000061026AA0EF09AF9002800F096800A9BEA
:104C80001BB1079819460DF04DFB069B5A6EB3F900
:104C90000C30D40740F1EA80590601F11F830998CE
:104CA00053B0BDEC028BBDE8F08F00BFAFF30080C6
:104CB0000000000000000000002D00F087800022AE
:104CC0008DF8E4508DF87B200123CDE90C2205936B
:104CD0001E4639AB0A9291460F920493039B13F040
:104CE000020302D0059902310591039911F0840461
:104CF00005D1089905980F1A002F00F38983289F82
:104D00008AB1279A0DF17B0101320137CBF80010EF
:104D1000072A4FF0010128972792CBF8041000F3DF
:104D2000DD830BF1080B83B1279B1FAA01330237E8
:104D3000CBF80020072B4FF0020228972793CBF8DF
:104D4000042000F3D9830BF1080B802C00F057826C
:104D5000A9EB0608B8F1000F00F39D82039BDC0568
:104D600000F1D481049BCBF80030279BCBF8046082
:104D70000133F519072B2895279300F3EE820BF1E9
:104D8000080B039B5E0705D5089B059A9C1A002C0F
:104D900000F3BE83DDE9082305998A42ACBF9B1866
:104DA0005B180993002D7FF462AF002327930A9BC1
:104DB0001BB10A9907980DF0B5FA0DF1A40BCDF8C7
:104DC00010A0049B1B78002B7FF464AE289B002B63
:104DD00041F023820023279357E70B9B073323F0EF
:104DE0000703B3EC027B57EC176B0B9327F00043E0
:104DF0001B938DED1A7ADDE91A01B64B4FF0FF32A5
:104E00008DED107BFCF7DEF9002840F03785DDE9F9
:104E10001A01B04B4FF0FF32FCF71CF9002840F0AC
:104E20002D850022002330463946FCF709F9002879
:104E300040F0FC869DF87B20039BA74C23F0800369
:104E40000393A64B472DC8BF1C460023CDE90C3366
:104E5000032104940A9305910E4699460F93002A64
:104E60003FF43CAF059B0133059337E798053FF5C9
:104E700013AF069CA06D11F0D9F9B4F90C300BE713
:104E800007980DF07BF9D7E5039B9AF8005043F0A3
:104E9000200303931DE6039B43F010030393039B3E
:104EA0009C0640F155840B9B073323F007031A46F9
:104EB000596852F8083B0B920A460029C0F27984DF
:104EC000B9F1FF3F00F0FB82039921F0800653EA1D
:104ED000020140F0F582B9F1000F40F0F68203962E
:104EE00052AB4E46049365E00B9B002253F8041B23
:104EF0008DF87B208DF8E4100B93E5E60B9F57F8B7
:104F0000043B049300268DF87B60002B00F078852D
:104F1000B9F1FF3F00F0338604984A463146FBF76B
:104F20002FFB0A90002801F05C810A9B049A0B97E2
:104F3000B1469E1A26EAE673CDE90C999DF87B20CE
:104F40000593CDF82890CDF83C9088E7039B43F07B
:104F500010030393039B13F0200200F018840B9BB3
:104F6000073323F0070319465A6851F8083B0B91A1
:104F7000039921F4806600210020B9F1FF3F8DF8EC
:104F80007B0000F0208126F08000039053EA0200AD
:104F900040F01881B9F1000F40F0D98500299FD168
:104FA00016F001061BBF30238DF8473152AB0DF2CE
:104FB00047130493B1454FF000034946B8BF31464B
:104FC000CDE90C339DF87B200A9305910F9346E7BA
:104FD0000B9B53F8042B0892002A80F2FA83089A5C
:104FE0000B9352420892039B9AF8005043F004033B
:104FF00003936EE52B239AF800508DF87B3068E51B
:10500000039B9AF8005043F08003039361E55246F6
:1050100012F8015B2A2D01F03E82A5F13003092B25
:1050200092464FF000093FF656AD1AF8015B09EBC6
:10503000890903EB4909A5F13003092BF5D94AE5A4
:10504000039B9AF8005043F00103039341E59DF858
:105050007B309AF80050002B7FF43BAD20238DF875
:105060007B3036E5039B43F0100616F0200200F07B
:105070007F830B9B073323F0070319465A6851F8C7
:10508000083B0B91012177E7039B9AF8005043F00E
:10509000080303931DE5039B9E0640F1D8830B9BF9
:1050A000099A1B681A60D2175A600B9B04330B9342
:1050B00085E60B9A039B43F0020652F8043B0B92E1
:1050C00047F63002ADF87C20054A149202210022F6
:1050D000782551E7FFFFEF7FECB30108F0B301083B
:1050E000FCB301089AF80050039B6C2D00F0728409
:1050F00043F010030393ECE49AF80050039B682DEF
:1051000000F05F8443F040030393E2E4652D40F335
:105110003081DDE9100100220023FBF787FF002822
:1051200000F03282279BB84ACBF8002001330137C8
:105130000122072B28972793CBF8042000F3FA8449
:105140000BF1080B209B0E9A934204DB039BD807BC
:1051500001D43D4615E6129B139ADD19CBE90023D5
:10516000279B28950133072B279300F33C840BF1F1
:10517000080B0E9B5C1E002C7FF703AE102C279BA8
:10518000A24F40F3E984DDE90698102605E00BF113
:10519000080B103C102C40F3DF8401331035072B33
:1051A000CBE90076CDE92735F1DD26AA4946404610
:1051B0000DF0FCFE00287FF462ADDDE927350DF12E
:1051C000A40BE6E7039E012900F07A81022900F092
:1051D000638152AC03F00701DB0843EA4273D20853
:1051E000303153EA0207204604F8011DF2D1F707D7
:1051F000049400F14A8252AB03961E1BDAE6089B28
:10520000059AA3EB0208B8F1000F7FF7A1ADB8F142
:10521000100F3A46279B7D4F29DD19951C961024C7
:10522000DDE90656194606E0A8F11008B8F1100F9E
:105230000BF1080B18DD013110320729CBE900749E
:10524000CDE92712F0DD26AA294630460DF1A40B40
:105250000DF0ACFE00287FF412ADA8F11008B8F1F3
:10526000100FDDE92712E6DC199D1C9E0B46013369
:10527000CBF80070072B08EB0207CDE92737CBF8F6
:10528000048000F39183A9EB0608B8F1000F0BF13D
:10529000080B7FF763ADB8F1100F3A46279B5B4FC1
:1052A0002EDD5946079CC3464FF01009B8463746D5
:1052B0002E46069D06E0ABF1100BBBF1100F01F17D
:1052C000080118DD013351481032072BC1E90009EC
:1052D000CDE92732EFDD26AA294620460DF066FEED
:1052E00000287FF4CCACABF1100BBBF1100FDDE963
:1052F000273229A9E6DC35463E464746D8468B4646
:105300000133CBF80070072B08EB0207CDE92737F4
:10531000CBF8048000F30F820BF1080B1EE5129B03
:1053200013985919CBE90003279B28910133072BC8
:10533000279300F3E0850BF1080B002AC0F29D874C
:10534000049ACBF800200E9ACBF8042001335518AC
:10535000072BCDE927357FF712ADDDE9061026AA28
:105360000DF024FE00287FF48AAC289D0DF1A40BDB
:1053700007E50E9B012B0BF1080640F39381049B7C
:10538000CBF80030279B013301370122072B2897E8
:105390002793CBF8042000F35383129A03F10108FA
:1053A000139BD519B8F1070FC6E90032CDE927855F
:1053B00000F3528308360E9BDDE9100103F1FF393B
:1053C00000220023FBF732FE002840F08C81049C71
:1053D000C6F8049008F1010801344D44B8F1070FF4
:1053E000CDE92785346000F372810836169A726021
:1053F00008F101031544072B22AACDE927353260B5
:10540000ABDC06F1080BBCE42CB4010850B4010875
:10541000102FDDE92721DFF860842DDD1993434645
:10542000CDE91C45B046DDE906541E4604E0103FB8
:10543000102F0BF1080B19DD013210311023072A50
:10544000CDE92721CBF80060CBF80430EFDD26AAA8
:10545000294620460DF1A40B0DF0A8FD00287FF48D
:105460000EAC103F102FDDE92721E5DCDDE91C45FE
:105470003046199B4646804601323944072ACBF80C
:105480000080CBF804702891279200F343839DF8A5
:105490007B200BF1080B32E4149C52A903F00F009F
:1054A0001B09205C01F8010D43EA0273120953EA5B
:1054B0000200F3D152ABCDE903615E1A7AE5039E97
:1054C0000A2B72F1000180F0D38230338DF847311E
:1054D0000DF247130396049301266BE5DDE90610F0
:1054E00026AA19930DF062FD00287FF4C8AB289F0F
:1054F000199B0DF1A40B16E4DDE9061026AA0DF0A8
:1055000055FD00287FF4BBAB289F0DF1A40B1CE4D4
:10551000102C279BDFF8608323DD4746DDF81890C9
:10552000DDF81C80102604E0103C102C0BF1080B59
:1055300016DD01331035072BCBE90076CDE9273591
:10554000F2DD26AA494640460DF1A40B0DF02EFDD2
:1055500000287FF494AB103C102CDDE92735E8DC03
:10556000B84601332544072BCBE90084CDE9273524
:105570007FF710ACDDE9061026AA0DF017FD002814
:105580007FF47DAB289D05E4209A002A40F3268114
:105590000C9E0E9B049A9E42A8BF1E46002E1344EA
:1055A00019930BDD279B01333744072BCBE90026EA
:1055B0002897279300F3E8850BF1080B0C9D002E2C
:1055C000A8BFAD1B002D00F3F082049B0C9A13447E
:1055D0009946039B590500F1F384209C0E9B9C4245
:1055E00003DB039AD20740F1D783129B139ADD198C
:1055F000CBE90023279B28950133072B279300F342
:10560000E2850BF1080B0E9B1C1B199BA3EB0906F3
:10561000A642A8BF2646002E0DDD279BCBF80090A2
:1056200001333544072BCBF804602895279300F30A
:10563000E4850BF1080B002EA8BFA41B002C7FF7FC
:10564000A0AB102C279B8A4F40F38682DDE9069899
:10565000102605E00BF1080B103C102C40F37C8267
:1056600001331035072BCBE90076CDE92735F1DD85
:1056700026AA494640460DF099FC00287FF4FFAA6F
:10568000DDE927350DF1A40BE6E7302900F086812E
:10569000049A03963023023802F8013C52AB1E1ADA
:1056A000049087E4039BDB073FF569AE049BCBF8CE
:1056B0000030279B03F101087D1C0123B8F1070F7F
:1056C0002895CDF89C80CBF804307FF78FAEDDE9CC
:1056D000061026AA0DF06AFC00287FF4D0AADDE9A6
:1056E000278529AE82E60E9B012B7FF77FAE112B1B
:1056F0005F4F40F34D8243461024DDE906B806E0D3
:105700000836A9F11009B9F1100F40F340820133B6
:105710001035072BC6E90074CDE92735F0DD26AA40
:10572000594640460DF042FC00287FF4A8AADDE966
:10573000273529AEE5E7DDE9061026AA0DF036FC8F
:1057400000287FF49CAA289F0DF1A40BFFF706BB4D
:105750000B9A52F8043B0B92039AD00673D4039A27
:1057600051066CD543F3C03211461BB2FFF7A5BBFF
:105770000B9951F8043B0B9116F010015CD116F017
:10578000400054D00A469BB20121FFF7F5BB0B99AC
:1057900051F8043B0B91039911F010017FF4E8AB31
:1057A000039A12F0400000F02A829BB20A46FFF7EB
:1057B000DFBB5B42039E62EB42022D200121FFF71B
:1057C000DCBB069DA86D10F02BFDB5F90C30FFF782
:1057D0003CB99AF800500B93FFF77BB9279B2549FA
:1057E000CBF8001001337D1C0121072B289527934E
:1057F000CBF8041000F3AC840BF1080B002A7FF403
:105800008EAD039B0E9A03F0010313433FF4B9AA34
:10581000129B139A5919CBE90023279B2891013336
:10582000072B279300F367830BF1080B88E516F429
:1058300000721CBFDBB202460121FFF79DBB039A39
:10584000920500F1B882DA171146FFF736BB039BC9
:10585000DD0600F18E81039B5C0600F1A682039BAE
:10586000980540F186810B9B099A1B681A701CE40D
:1058700050B401082CB4010860B40108DDE910013E
:1058800002460B46FBF79EFC002840F09585612DF3
:1058900000F09784412D00F09482B9F1FF3F00F0B1
:1058A0007C8525F02003472B04D1B9F1000F08BFF8
:1058B0004FF00109DDE91001039C002944F48072D6
:1058C0000592C0F25384002341EC180B19930A93FC
:1058D000A5F14103252B00F2C681DFE813F0340364
:1058E000C401C401C4012D033103C401C401C401B6
:1058F000C401C401C401C401C401C401C401C40180
:10590000C401C401C401C401C401C401C401C4016F
:10591000C401C401C401C401C401C401C401C4015F
:10592000C401C401C4012D033103159B9AF8005032
:10593000002B3FF4CEA81B78002B3FF4CAA8039B92
:1059400043F480630393FFF7C4B8BB4B1493039BEA
:1059500013F0200264D00B9B073323F00703194692
:105960005A6851F8083B0B910398C1070AD553EACE
:10597000020107D040F00201039130218DF87D50E3
:105980008DF87C10039921F480660221FFF7F4BAA8
:10599000039EFFF76ABBA94B1493D8E7049A0396BA
:1059A00052AB9E1AFFF706BBDDE9061026AA0DF0E2
:1059B000FDFA00287FF463A9289F0DF1A40BFFF7DF
:1059C000C7B943F400739AF8015003930AF1010A2E
:1059D000FFF77FB843F020039AF8015003930AF1D0
:1059E000010AFFF776B8DDE9061026AA0DF0DEFA07
:1059F00000287FF444A9289D0DF1A40BFFF7B9BB43
:105A00004E46062E1A4628BF062699460A938C4B08
:105A10000596CDE90C220B9704930F92FFF71FBA5E
:105A20000B9951F8043B0B91039911F010019BD194
:105A3000039A12F0400000F0DB809BB20A4693E725
:105A4000DDE9061026AA0DF0B1FA00287FF417A9A7
:105A5000DDE9273729AEA0E4DDE9061026AA0DF01E
:105A6000A5FA00287FF40BA9DDE9278529AEA2E479
:105A7000002106F480670596CDE903A5DFF8C8810B
:105A8000159E52AC8C4605E00A2B72F1000235D30C
:105A900053462A46991841F10001A8FB010525F05B
:105AA000030000EB9500091A581A4FF0CC3562F14B
:105AB000000E05FB00F508FB0E55A0FB08A00544F1
:105AC0000AF0010E0520AEFB000E40184FEA5A0AFC
